:100000000C9462000C948A000C948A000C948A0070
:100010000C948A000C948A000C94440F0C948A006F
:100020000C948A000C948A000C948A000C948A0028
:100030000C948A000C948A000C948A000C948A0018
:100040000C9490040C948A000C9400050C94DA042F
:100050000C948A000C948A000C948A000C948A00F8
:100060000C948A000C948A000000000024002700F1
:100070002A0000000000250028002B0000000000DE
:1000800023002600290004040404040404040202DA
:100090000202020203030303030301020408102007
:1000A0004080010204081020010204081020000012
:1000B0000008000201000003040700000000000027
:1000C00000007E1011241FBECFEFD8E0DEBFCDBFF1
:1000D00012E0A0E0B1E0E0E3F6E202C005900D928C
:1000E000AA33B107D9F723E0AAE3B2E001C01D9219
:1000F000AF37B207E1F710E0C2E6D0E004C02197C5
:10010000FE010E943C12C136D107C9F70E94470F79
:100110000C9416130C940000833081F028F4813085
:1001200099F08230A9F008958730A9F08830C9F09D
:100130008430B1F4809180008F7D03C08091800075
:100140008F7780938000089584B58F7784BD08955C
:1001500084B58F7DFBCF8091B0008F778093B00006
:1001600008958091B0008F7DF9CFCF93DF93282F32
:1001700030E0F901E255FF4F8491F901E656FF4F57
:10018000D491F901EA57FF4FC491CC23A1F081111A
:100190000E948C00EC2FF0E0EE0FFF1FE458FF4FA1
:1001A000A591B491EC91ED2381E090E009F480E019
:1001B000DF91CF91089580E090E0FACF1F93CF9325
:1001C000DF93282F30E0F901E255FF4F8491F901C8
:1001D000E656FF4FD491F901EA57FF4FC491CC2363
:1001E000A9F0162F81110E948C00EC2FF0E0EE0F89
:1001F000FF1FEE58FF4FA591B4918FB7F894EC9183
:10020000111108C0D095DE23DC938FBFDF91CF9111
:100210001F910895DE2BF8CFCF93DF9390E0FC0180
:10022000E656FF4F24918A579F4FFC018491882303
:10023000D1F090E0880F991FFC01E859FF4FA5917C
:10024000B491FC01EE58FF4FC591D49161110EC0DD
:100250009FB7F8948C91E22FE0958E238C932881A0
:10026000E223E8839FBFDF91CF9108958FB7F89481
:10027000EC91E22BEC938FBFF6CFAF92BF92CF926F
:10028000DF92EF92FF920F931F93CF93DF936C0156
:100290007B018B01040F151FEB015E01AE18BF0837
:1002A000C017D10759F06991D601ED91FC910190E9
:1002B000F081E02DC6010995892B79F7C501DF9101
:1002C000CF911F910F91FF90EF90DF90CF90BF9053
:1002D000AF900895FC01538D448D252F30E0842F7D
:1002E00090E0821B930B541710F0CF96089501975E
:1002F0000895FC01918D828D981761F0A28DAE0F4B
:10030000BF2FB11D5D968C91928D9F5F9F73928FD1
:1003100090E008958FEF9FEF0895FC01918D828DFD
:10032000981731F0828DE80FF11D858D90E00895CA
:100330008FEF9FEF0895FC01918D228D892F90E022
:10034000805C9F4F821B91098F73992708958EEDD2
:1003500092E00E949B0121E0892B09F420E0822F8A
:1003600008950E94A70181110C940000089580E077
:1003700090E0892B11F00C94B1010895FC01A48D3B
:10038000A80FB92FB11DA35ABF4F2C91848D90E0B7
:1003900001968F739927848FA689B7892C93A0899A
:1003A000B1898C91837080648C93938D848D981324
:1003B00006C00288F389E02D80818F7D80830895B7
:1003C000EF92FF920F931F93CF93DF93EC0181E0A5
:1003D000888F9B8D8C8D98131AC0E889F98980814C
:1003E00085FF15C09FB7F894EE89FF896083E8897F
:1003F000F98980818370806480839FBF81E090E071
:10040000DF91CF911F910F91FF90EF900895F62EFD
:100410000B8D10E00F5F1F4F0F731127E02E8C8D97
:100420008E110CC00FB607FCFACFE889F9898081DC
:1004300085FFF5CFCE010E94BE01F1CFEB8DEC0F11
:10044000FD2FF11DE35AFF4FF0829FB7F8940B8FF9
:10045000EA89FB8980818062CFCFCF93DF93EC0163
:10046000888D8823B9F0AA89BB89E889F9898C919C
:1004700085FD03C0808186FD0DC00FB607FCF7CF58
:100480008C9185FFF2CF808185FFEDCFCE010E9458
:10049000BE01E9CFDF91CF910895FC0101900020CA
:1004A000E9F73197AF01481B590BBC018EED92E083
:1004B0000C943D01CF93DF930E944D02EC018BE140
:1004C00091E00E944D028C0F9D1FDF91CF91089506
:1004D0000F931F93CF93DF93EC018881998100974D
:1004E00059F02A813B812617370730F081E0DF91F0
:1004F000CF911F910F9108958B016F5F7F4F0E94E5
:100500004212009759F0998388831B830A832C81B8
:100510003D81232B59F7FC011082E8CF80E0E7CF23
:10052000CF93DF93EC0188819981009711F00E94AD
:100530004711198218821D821C821B821A82DF9148
:10054000CF91089580914602909147020E941E0C1F
:1005500083E00E94B500C0914C02D0914D020197FA
:1005600079F4C83B8BE0D8075CF4CC59DF4FD093CB
:100570004D02C0934C0280914C0290914D02E6CF07
:1005800082E00E94B5000197B1F7C536D1059CF312
:10059000C456D109ECCF80914402909145020E944B
:1005A0001E0C8DE00E94B50090934F0280934E0286
:1005B000892B39F48CE00E94B5009093430280931C
:1005C0004202809142029091430261E0892B09F03E
:1005D00060E08CE00E94DE00809140029091410238
:1005E0000C941E0C80913E0290913F020E941E0CC2
:1005F00084E00E94B50061E0019709F060E08DE0C1
:100600000E94DE0080913C0290913D02EFCF0F935B
:100610001F93CF93DF9361E08DE00E940C0160E0B7
:1006200084E00E940C01C2E0D0E0D0933D02C09370
:100630003C02D0933F02C0933E0261E08CE00E94F6
:100640000C0101E010E01093410200934002D093AE
:100650004502C093440261E083E00E940C0161E026
:1006600082E00E940C0183E090E090934D02809321
:100670004C021093470200934602EEEDF2E0A0898F
:10068000B18982E08C93A485B5851C92A685B78537
:100690008FEC8C93108EA489B58986E08C93A28907
:1006A000B3898C9180618C93A289B3898C91886085
:1006B0008C93A289B3898C9180688C930288F3898A
:1006C000E02D80818F7D8083109349020093480242
:1006D000D0935102C093500210E000E022E040E8C5
:1006E00050E06EE171E082EF92E00E941C0E21E08A
:1006F00040E850E069E271E08BEC92E00E941C0E51
:1007000022E040E850E066E371E082EA92E00E9475
:100710001C0E20E040E850E066E471E087E993E0D9
:100720000E941C0EDF91CF911F910F910895CF93DE
:10073000DF93CDB7DEB768970FB6F894DEBF0FBE74
:10074000CDBF80915002909151020E941E0C8E01EB
:100750000F5F1F4F80914E0290914F022091000138
:10076000309101018217930799F0019709F0A7C012
:1007700080E591E00E945A0285E691E00E945A02CB
:1007800080914E0290914F0290930101809300015D
:1007900080914C0290914D0220914A0230914B027F
:1007A0008217930709F484C01C8A1B8A1E8A1D8A3B
:1007B000188E1F8A4AE0B8010E94D011F8010190FA
:1007C0000020E9F731977F01E01AF10AB701CE0165
:1007D00043960E946802811179C0CE0143960E941F
:1007E00090021A8219821C821B821E821D8261E283
:1007F00070E0C8010E946802811170C0C8010E94A7
:100800009002CB88DC88C114D10409F472C0EF884F
:10081000F88CE114F104B1F08D819E81E80EF91E8F
:10082000B701C8010E946802882309F462C02981C7
:100830003A818D819E81B601820F931F0E940F1312
:10084000FE82ED82ED80FE8024E0E20EF11CB70115
:10085000C8010E946802811150C0C8010E94900224
:100860004D815E8169817A818EED92E00E943D0129
:100870008BE191E00E944D0289819A81009711F0ED
:100880000E9447118B899C89009711F00E944711A3
:1008900080914C0290914D0290934B0280934A02BA
:1008A000883B2BE09207B4F18FEC91E00E945A0252
:1008B00080914802909149020E941E0C4BCF88E71C
:1008C00091E00E945A028DE891E058CFF88EEF8AAD
:1008D000B8018B899C890E940F1383CF81E290E03D
:1008E0009E838D8368EA71E089819A810E940F134B
:1008F00088CFC8010E949002A5CF29813A818D81BD
:100900009E816AEC71E0820F931F0E940F13FE829A
:10091000ED82A6CF853691055CF68EEF91E0C6CFCD
:100920001F920F920FB60F9211242F933F938F9324
:100930009F93AF93BF9380917F0290918002A0918B
:100940008102B091820230917E0223E0230F2D3785
:1009500058F50196A11DB11D20937E0280937F0260
:1009600090938002A0938102B093820280917A02D8
:1009700090917B02A0917C02B0917D020196A11D15
:10098000B11D80937A0290937B02A0937C02B09376
:100990007D02BF91AF919F918F913F912F910F90C9
:1009A0000FBE0F901F90189526E8230F0296A11DE9
:1009B000B11DD2CF1F920F920FB60F9211242F9319
:1009C0003F934F935F936F937F938F939F93AF93D7
:1009D000BF93EF93FF938EED92E00E94BE01FF91D3
:1009E000EF91BF91AF919F918F917F916F915F91A7
:1009F0004F913F912F910F900FBE0F901F90189520
:100A00001F920F920FB60F9211242F938F939F93E3
:100A1000EF93FF93E091EE02F091EF028081E0917D
:100A2000F402F091F50282FD1BC090818091F702E3
:100A30008F5F8F732091F802821741F0E091F702E7
:100A4000F0E0E252FD4F958F8093F702FF91EF9116
:100A50009F918F912F910F900FBE0F901F9018951F
:100A60008081F4CFE0918502F0918602808181112E
:100A700007C08FEF9FEF90937902809378020895DB
:100A8000E0918502F09186020580F681E02D80815B
:100A90009181F1CFCF93DF93DC011596ED91FC911D
:100AA0000680F781E02DA489B58986859785208900
:100AB0003189EC013D832C83C089D1899B838A8352
:100AC000CF010C9611962D913C911297281739075A
:100AD00021F41296DC93CE931197158A148A2C91E7
:100AE00021502C9320915502211157C0A285B38526
:100AF0008481958126813781EC013D832C83C681D9
:100B0000D7819B838A83CF01029611962D913C91C8
:100B100012972817390721F41296DC93CE93119778
:100B2000138612862C9121502C93C6892091D802CD
:100B30002C1710F4C093D80229E02C9FE001112457
:100B4000CC54DD4F0980DA81C02DD583C4834C811C
:100B50005D8157834683AC81BD8113969C938E93B0
:100B600012979D838C83A689A29FD0011124AC5437
:100B7000BD4FB387A2878C918F5F8C93A091DB02CE
:100B8000B091DC02968956968C91891730F581E0F8
:100B900080935402DF91CF910895A0919A02B09171
:100BA0009B02B787A68714962D913C911597318BA0
:100BB000208B1496CD91DC9115979B838A83159693
:100BC0009C938E93149789E992E0958B848B809106
:100BD00099028F5F80939902D1CF80E0DBCF0FB66F
:100BE000F8940F9280917602909177020F900FBE49
:100BF0000895809155028F5F8093550208950FB636
:100C0000F8940F92FC01928D0F900FBE81E091112C
:100C100080E00895EF92FF920F931F93CF93DF939D
:100C2000EC010FB6F8940F921E8D7C0181E1E80E65
:100C3000F11C01E01116D4F08FEF8E8F0F900FBED4
:100C40000FB6F8940F921D8D7E0188E0E80EF11C1E
:100C500001E01116B4F08FEF8D8F0F900FBEDF9172
:100C6000CF911F910F91FF90EF900895898988236C
:100C700019F3C7010E944A058111009354021150D3
:100C8000D9CF8885882339F3C7010E944A0581118D
:100C9000009354021150DDCFCF93DF93FC01A08568
:100CA000B1858281938124813581EC013D832C8340
:100CB000C481D5819B838A8311968D919C911297D3
:100CC0008E179F0721F41296DC93CE93119711860D
:100CD00010868C9181508C938C91DF91CF910895E7
:100CE0000F931F93CF93DF938C01FB018081918140
:100CF000D80113968F3F9807F1F4E801AF81B885CA
:100D000012968D919C91139793838283EC01FD83BE
:100D1000EC83B583A4831396FC93EE93129711870B
:100D20000087F80180818F5F8083DF91CF911F91D1
:100D30000F910895D90112962D913C911397E901D5
:100D40004881598184179507A8F7DACFFC0173838E
:100D50006283918780874617570790F0421B530B99
:100D60008485958548175907C8F4BF016E5F7F4F8A
:100D700080915C0290915D020E94700680E008956F
:100D80004217530718F46217730740F4BF016E5FF0
:100D90007F4F80915E0290915F02EECF81E00895D7
:100DA000EF92FF920F931F93CF93DF93EC018B0190
:100DB0007A016C857D85600F711F9801A701CE01B6
:100DC0000E94A606811107C0DF91CF911F910F915C
:100DD000FF90EF9008958C859D85080F191FE88975
:100DE000F989CE010995E5CFEF92FF920F931F93FA
:100DF000CF93DF938C017B01E0915E02F0915F0263
:100E00000580F681E02DC681D781CE0102960E9431
:100E10004C068A8982FF0FC0A701B801CE010E944B
:100E2000D006E889F989CE01DF91CF911F910F910A
:100E3000FF90EF9009948E7F8A8BF3CFE0915E0252
:100E4000F0915F02808181110DC080915C029091D0
:100E50005D0290935F0280935E02F0935D02E093E7
:100E60005C0208950580F681E02D6FEF7FEF8081B1
:100E700091810E94F406E2CFBF92CF92DF92EF926F
:100E8000FF920F931F93CF93DF93EC01B62EC09088
:100E90007602D09077020091850210918602E09050
:100EA0008302F09084028091DB029091DC02029632
:100EB0000E944C06CF3FDC0709F042C0BB2009F47A
:100EC0003FC0E0918802F0918902A091DB02B091CD
:100ED000DC021596FC93EE931497A091DB02B0917F
:100EE000DC028481958117969C938E93169780914E
:100EF000DB029091DC02A481B581029613969C934B
:100F00008E9312978091DB029091DC02029695837A
:100F10008483E091DB02F091DC0287E892E0938722
:100F20008287809187028F5F80938702DF91CF91C4
:100F30001F910F91FF90EF90DF90CF90BF90089599
:100F4000CC0DDD1DE091DB02F091DC02D383C28386
:100F50006091DB027091DC026E5F7F4FCC15DD0586
:100F600060F4C701DF91CF911F910F91FF90EF9037
:100F7000DF90CF90BF900C947006C8010E9470065D
:100F80008091780290917902C817D90778F6D093AA
:100F90007902C0937802CACFFC01039692838183C1
:100FA0002FEF3FEF34832383968385839087878356
:100FB000108208950F920FB6F8940F921F92112489
:100FC0002F923F924F925F926F927F928F929F9259
:100FD000AF92BF92CF92DF92EF92FF920F931F9347
:100FE0002F933F934F935F936F937F938F939F9331
:100FF000AF93BF93CF93DF93EF93FF93A091DB0267
:10100000B091DC020DB60D920EB60D928091550294
:10101000882321F081E08093540261C01092540231
:10102000A091DB02B091DC02E091DB02F091DC02E6
:101030002D913C918789908D82179307A8F080911C
:10104000DB029091DC028091DB029091DC02259A18
:101050002D9A2FEF87EA91E6215080409040E1F7EA
:1010600000C000001D9AF5CF2091D80289E001C090
:101070002150422F50E0849FF001859FF00D1124F4
:10108000EC54FD4F9081992399F3A181B28112967E
:101090006D917C9172836183289FC00111248954D2
:1010A0009D4F6817790721F485819681928381830A
:1010B00089E0849FF001859FF00D1124EC54FD4FD1
:1010C0000180F281E02D868197819093DC028093EC
:1010D000DB022093D8028091DB029091DC02A09188
:1010E000DB02B091DC02CD91CDBFDD91DEBFFF917F
:1010F000EF91DF91CF91BF91AF919F918F917F91B0
:101100006F915F914F913F912F911F910F91FF90A0
:10111000EF90DF90CF90BF90AF909F908F907F9097
:101120006F905F904F903F902F901F900F900FBE49
:101130000F9008958F929F92BF92CF92DF92EF927D
:10114000FF920F931F93CF93DF930FB6F8940F92F4
:1011500080915502815080935502809155028823D9
:1011600079F080E00F900FBEDF91CF911F910F912A
:10117000FF90EF90DF90CF90BF909F908F90089559
:101180008091DD02882369F3E0909E02F0909F0237
:10119000F0E0E0E039E041E08091990281115EC029
:1011A000EF2B11F00E943205E0905202F0905302B2
:1011B000E114F10409F47DC189E0D82ECC24C39454
:1011C0000FEF1FEF80915502811161C1C09176022E
:1011D000D09177024E018FEF881A980A9092770289
:1011E0008092760281149104B9F4809185029091E5
:1011F00086022091830230918402309386022093EC
:1012000085029093840280938302809159028F5FBC
:10121000809359020E943205809178029091790260
:10122000B12C8816990608F026C1E091DB02F091F6
:10123000DC02E689DE9EF0011124EC54FD4F808132
:10124000823010F0BB24B39480915402811103C00A
:10125000BB2009F425C1C092540222C1D7011696C1
:10126000ED91FC91A489B5896685778580899189FE
:10127000EB019D838C8380899189EC017B836A8358
:10128000BF01645F7F4F11960D911C911297061755
:10129000170721F412969C938E931197158A148A3E
:1012A0008C9181508C93A285B385848195816681D0
:1012B0007781EC017D836C8366817781EB019B8371
:1012C0008A83CF01029611960D911C9112970817EF
:1012D000190721F412967C936E9311971386128648
:1012E0002C9121502C93A6892091D8022A1710F412
:1012F000A093D8023A9FD0011124AC54BD4F11964F
:101300000D90BC91A02DB583A48314966D917C9112
:1013100015977783668314966D917C911597EB01F1
:101320009B838A8315969C938E9314979689939F9B
:10133000D0011124AC54BD4FB387A2878C918F5F2D
:101340008C93A091DB02B091DC0256968C918917A8
:1013500008F022CF409354021FCFE0918502F09114
:1013600086020580F681E02D0680F781E02D8281DE
:1013700093818816990628F49093790280937802D5
:1013800054CFC285D3858481958126813781DC0144
:1013900015963C932E93149726813781D901139685
:1013A0009C938E931297CF01029649815A814817D8
:1013B000590711F43A832983138612862881215014
:1013C0002883A489B5891097F9F026853785408947
:1013D0005189E9015D834C8340895189EA013B834E
:1013E0002A8311966D917C9112979F01245F3F4F44
:1013F0006217730721F412965C934E931197158A26
:10140000148A2C9121502C93A6892091D8022A1756
:1014100010F4A093D802DA9ED0011124AC54BD4F31
:1014200011960D90BC91A02DB583A48314962D9197
:101430003C9115973783268314962D913C911597EF
:10144000E9019B838A8315969C938E9314979689C2
:101450009D9DD0011124AC54BD4FB387A2878C91C0
:101460008F5F8C93E091DB02F091DC028689891713
:1014700010F4BB24B394E0918502F0918602808140
:1014800081116BCF1093790200937802CECE8091B8
:10149000520290915302019690935302809352020C
:1014A000D1E0ED1AF10809F08DCE1092530210929E
:1014B000520280915402882309F453CE8091DB02BA
:1014C0009091DC020E94DA0781E04CCECF93DF934B
:1014D000009751F0EC010E94F905CE010E944711DE
:1014E000DF91CF910C949A08DF91CF910895CF931B
:1014F000DF9300D000D01F92CDB7DEB785E0B82EC5
:10150000CE0101967C01E0915E02F0915F021081B4
:10151000D12CC12C112329F00580F681E02DC0804B
:10152000D1800E94F9050E94EF054C01809157027D
:10153000909158028816990608F089C00E941E07EB
:1015400090925802809257020E949A08D701EB2D80
:101550001D92EA95E9F700917402109175020FB699
:10156000F8940F92D8015A96DC905A97DD2009F42E
:101570002FC15C964C915C974423F9F050E016968D
:101580008D919C911797840F951F17969C938E931E
:10159000169714962D913C9115978217930738F062
:1015A0008D919C91119717969C938E931697F801A5
:1015B00066817781C7010E94FF12DA94D8015A969A
:1015C000DC925A9718968C91882339F0C8010896B6
:1015D0000E944A0581110E94DA070F900FBEA98070
:1015E000A7FCB9CF0C811D81D8011A968D919C91D1
:1015F000892B21F0C80102960E944C060E94EF053B
:101600006C018091570290915802C816D90610F4C7
:101610000E941E07D0925802C0925702EFEFEA0DC7
:10162000E93008F098CF0E2E000CFF0BE25EF44F6D
:10163000D80152968C9152970C943C12A10BA10B9D
:10164000E40BCC0BDE0BA10BA10BE40BCC0B9092AB
:10165000580280925702112351F08C149D0470F0AF
:101660000E949A08B401C6010E94F4066FCFE0916F
:101670005C02F0915D02808161E0811160E0009187
:101680007402109175020FB6F8940F92D8015D960E
:101690008C915D978F3F11F45D961C92F801868DB9
:1016A0008F3F09F4168E0F900FBED8015A968C9179
:1016B0005A9781113CC05296ED91FC91A091DB02AA
:1016C000B091DC021F96FC93EE931E97A091DB0273
:1016D000B091DC028481958151969C938E935097B2
:1016E0008091DB029091DC02A481B5810C96139667
:1016F0009C938E9312978091DB029091DC020C9662
:1017000095838483E091DB02F091DC02C80141966D
:10171000958B848BF80181898F5F818BC601881935
:101720009909662311F08FEF9FEF0E943C07C801D3
:101730000E940A060E949A08811108CF0E94DA07C7
:1017400005CF8160F801828B8A809B8064857585D6
:10175000680D791D9401A601C8010E94A606882380
:1017600009F4F9CED80152968C91529782FF10C09D
:101770001C966D917C91680D791DA601C8010E948F
:10178000D006D8015096ED91FC91C8010995E3CEA1
:101790008E7FF801828BF5CF816052968C935297A1
:1017A0006A817B811D967C936E931C976C0D7D1DC9
:1017B0009601A601C8010E94A606CDCE81FD04C0F7
:1017C000C8010E94660AC7CE8E7FF801828BC3CE05
:1017D0000F900FBE98CE00E010E08091560281116C
:1017E0000CC08091B402823010F00E94DA0701151B
:1017F000110599F30E94B101F0CF0FB6F8940F9242
:10180000E0919502F0919602C681D781CE010296B1
:101810000E944C068091DD0281508093DD02809110
:1018200056028150809356020F900FBE8F89988D7B
:101830000E94660ACE010E94660ACFCFCF93DF9343
:10184000EC01892B29F40E94DA07DF91CF910895EA
:101850000E94F90560E0CE010E943C070E949A08B0
:10186000882389F3F2CF0F920FB6F8940F921F924C
:1018700011242F923F924F925F926F927F928F929C
:101880009F92AF92BF92CF92DF92EF92FF920F930F
:101890001F932F933F934F935F936F937F938F93F8
:1018A0009F93AF93BF93CF93DF93EF93FF93A09159
:1018B000DB02B091DC020DB60D920EB60D9213BE96
:1018C000809155028111F9C0809176029091770242
:1018D00001969093770280937602009781F520918C
:1018E0008502309186024091830250918402509388
:1018F00086024093850230938402209383022091D4
:1019000059022F5F20935902E0918502F0918602DF
:101910002081211107C02FEF3FEF309379022093F0
:1019200078020DC0E0918502F09186020580F68173
:10193000E02D20813181309379022093780220912B
:101940007802309179028217930710F420E0A1C049
:1019500020E039E0D32EE0918502F09186023081BB
:10196000311107C08FEF9FEF909379028093780237
:1019700090C0E0918502F09186020580F681E02D0D
:101980000680F781E02D428153818417950728F462
:1019900050937902409378027CC0A285B38544813C
:1019A000558166817781EA017D836C8366817781C9
:1019B000EB015B834A83AF014E5F5F4F11960D9140
:1019C0001C9112970417150721F412967C936E93BD
:1019D0001197138612863C9131503C93A489B589A6
:1019E0001097F9F06685778500891189EB011D83D1
:1019F0000C8300891189E8017B836A831196ED903D
:101A0000FC901297BF01645F7F4FE616F70621F442
:101A100012961C930E931197158A148A3C9131509B
:101A20003C93A6893091D8023A1710F4A093D802BB
:101A3000DA9ED0011124AC54BD4F11960D90BC918B
:101A4000A02DB583A48314966D917C91159777830F
:101A5000668314966D917C911597EB015B834A83A5
:101A600015965C934E93149746894D9DD001112491
:101A7000AC54BD4FB387A2873C913F5F3C93E0914C
:101A8000DB02F091DC023689341708F064CF21E0E4
:101A900062CFE091DB02F091DC02E689D9E0ED9FB4
:101AA000F0011124EC54FD4F8081823008F021E0D8
:101AB0008091540281110EC00AC08091520290910F
:101AC0005302019690935302809352026CC02223DA
:101AD00009F469C080915502882321F081E0809348
:101AE000540261C010925402A091DB02B091DC025A
:101AF000E091DB02F091DC022D913C918789908D81
:101B000082179307A8F08091DB029091DC0280910C
:101B1000DB029091DC02259A2D9A2FEF87EA91E65D
:101B2000215080409040E1F700C000001D9AF5CFA1
:101B30002091D80289E001C02150422F50E0849FBB
:101B4000F001859FF00D1124EC54FD4F90819923F5
:101B500099F3A181B28112966D917C917283618318
:101B6000289FC001112489549D4F6817790721F4DB
:101B7000858196819283818389E0849FF001859F8E
:101B8000F00D1124EC54FD4F0180F281E02D86818F
:101B900097819093DC028093DB022093D80280919E
:101BA000DB029091DC02A091DB02B091DC02CD91CE
:101BB000CDBFDD91DEBFFF91EF91DF91CF91BF915E
:101BC000AF919F918F917F916F915F914F913F91D5
:101BD0002F911F910F91FF90EF90DF90CF90BF90CA
:101BE000AF909F908F907F906F905F904F903F90BD
:101BF0002F901F900F900FBE0F900895CF93DF93FB
:101C0000EC010E94F905CE010E94AB10EC010E948C
:101C10009A08209769F4259A2D9A2FEF80E792E091
:101C2000215080409040E1F700C000001D9AF5CFA0
:101C3000CE01DF91CF9108957F928F929F92AF92C4
:101C4000BF92CF92DF92EF92FF920F931F93CF93A9
:101C5000DF93982EA92E762E872E7A01B22ECA01F6
:101C60000E94FE0D6C01892B09F4EDC088E290E022
:101C70000E94FE0DEC01892B09F4E2C088E2DE012E
:101C80001D928A95E9F7D88ECF8AA70165EA70E0A0
:101C9000C6010E940813B1E0EB1AF108EF89F88D34
:101CA000EE0DFF1D672D782DCE0149969B01285F13
:101CB0003F4FDB014D91BD01DC014D93CD01AB01E7
:101CC00041505109DA014C91442319F02617370786
:101CD00081F718A2BE8AB9A21B861A861D8A1C8AA1
:101CE000D987C88784E090E08B1991099D878C87FC
:101CF000DB8BCA8B9082DF011197AC9211971C92FB
:101D0000119780E88C9311971C9257971C9211970A
:101D10001C92B397F983E8830115110519F0F801B6
:101D2000D183C0830FB6F8940F928091DD028F5F4C
:101D30008093DD028091DB029091DC02892B09F017
:101D400091C0D093DC02C093DB028091DD02813030
:101D500081F584EB92E00E94CC078DEB92E00E942B
:101D6000CC0786EC92E00E94CC078FEC92E00E94B8
:101D7000CC078BEA92E00E94CC0782EA92E00E94B4
:101D8000CC0789E992E00E94CC0780E992E00E94AA
:101D9000CC0787E892E00E94CC078BEA92E0909310
:101DA00086028093850282EA92E090938402809377
:101DB00083028091D9028F5F8093D902AE8980918E
:101DC000D8028A1710F4A093D80229E02A9FD001E4
:101DD0001124AC54BD4F11960D90BC91A02DBD8324
:101DE000AC8314968D919C9115979F838E83149646
:101DF000ED91FC911597CE010296938382831596FF
:101E00009C938E931497EE89E29FF0011124EC5479
:101E1000FD4FFB87EA8780818F5F80830F900FBE25
:101E20008091DA02882351F0E091DB02F091DC022C
:101E300096898E89981710F40E94DA0781E004C011
:101E4000C6010E94660A8FEFDF91CF911F910F911B
:101E5000FF90EF90DF90CF90BF90AF909F908F90CA
:101E60007F9008958091DA028111A3CFE091DB0287
:101E7000F091DC0296898E89891708F49ACFD09365
:101E8000DC02C093DB0295CF0E94330C1895CF93F0
:101E9000DF93CDB7DEB728970FB6F894DEBF0FBE3D
:101EA000CDBF789484B5826084BD84B5816084BDE3
:101EB00085B5826085BD85B5816085BD80916E00E8
:101EC000816080936E001092810080918100826019
:101ED0008093810080918100816080938100809156
:101EE00080008160809380008091B1008460809345
:101EF000B1008091B00081608093B00080917A0041
:101F0000846080937A0080917A00826080937A0066
:101F100080917A00816080937A0080917A00806855
:101F200080937A001092C10020910701309108013E
:101F30008FEF98E0821B930B909304018093030131
:101F40000E940703ADE2B2E0FE013196BF018D9120
:101F50008193882321F082E0A533B807C1F70AE511
:101F600012E020E040EC50E08BEE9BE00E941C0E63
:101F7000882309F4B7C0813009F0B4C00FB6F894D3
:101F80000F928091740290917502892B09F050C0D4
:101F900089E692E00E94CC0780E692E00E94CC079E
:101FA00089E692E090935F0280935E0280E692E081
:101FB00090935D0280935C0281E590E00E94FE0DAB
:101FC0008C01009789F14F96F801918380838AE014
:101FD000838F85E0848F0FB6F8940F928081918172
:101FE000238D448DBC01249F600D711D11247583C8
:101FF0006483128E938382832150330B429FB001FE
:10200000439F700D1124860F971F978386838FEF50
:10201000858F868FC80108960E94CC07C80141961B
:102020000E94CC070F900FBE1093750200937402AC
:102030000F900FBE8091740290917502892B09F464
:1020400051C002E712E023E045E550E062E372E0B0
:1020500087E79AE00E941C0E813009F043C0F89493
:102060002FEF3FEF30937902209378028093DA02CA
:102070001092770210927602A89588E190EC0FB644
:10208000F894A895809360000FBE90936000A09193
:10209000DB02B091DC02CD91CDBFDD91DEBFFF91BF
:1020A000EF91DF91CF91BF91AF919F918F917F91F0
:1020B0006F915F914F913F912F911F910F91FF90E1
:1020C000EF90DF90CF90BF90AF909F908F907F90D8
:1020D0006F905F904F903F902F901F900F900FBE8A
:1020E0000F900895809102010E94070300E010E024
:1020F00001151105E9F30E94B101FACFEEEDF2E00E
:102100001382128288EE93E0A0E0B0E0848395838E
:10211000A683B7838DE091E09183808385EC90E086
:102120009587848784EC90E09787868780EC90E0A1
:10213000918B808B81EC90E0938B828B82EC90E092
:10214000958B848B86EC90E0978B868B118E128E0C
:10215000138E148E08950F931F93CF93DF938230C5
:10216000910510F482E090E0E0917D03F0917E0310
:1021700030E020E0B0E0A0E0309799F4211531057F
:1021800009F44AC0281B390B24303105D8F58A815F
:102190009B816115710589F1FB0193838283FE01A7
:1021A00011C0408151810281138148175907E0F025
:1021B0004817590799F4109761F012960C931297EB
:1021C00013961C933296CF01DF91CF911F910F91FF
:1021D000089500937D0310937E03F4CF21153105FC
:1021E00051F04217530738F0A901DB019A01BD01F4
:1021F000DF01F801C1CFEF01F9CF90937E03809307
:102200007D03CDCFFE01E20FF31F81939193225006
:10221000310939832883D7CF20917B0330917C0308
:10222000232B41F4209105013091060130937C036A
:1022300020937B0320910301309104012115310586
:1022400041F42DB73EB74091070150910801241B7E
:10225000350BE0917B03F0917C03E217F307A0F4C8
:102260002E1B3F0B2817390778F0AC014E5F5F4FEC
:102270002417350748F04E0F5F1F50937C0340939F
:102280007B03819391939FCFF0E0E0E09CCFCF93CD
:10229000DF930097E9F0FC01329713821282A0913C
:1022A0007D03B0917E03ED0130E020E01097A1F4B2
:1022B00020813181820F931F20917B0330917C0319
:1022C0002817390709F061C0F0937C03E0937B0382
:1022D000DF91CF910895EA01CE17DF07E8F54A8133
:1022E0005B819E0141155105B1F7E901FB83EA834A
:1022F00049915991C40FD51FEC17FD0761F48081F6
:1023000091810296840F951FE901998388838281C8
:1023100093819B838A83F0E0E0E012968D919C91FB
:1023200013970097B9F52D913C911197CD01029625
:10233000820F931F20917B0330917C03281739076C
:1023400039F6309751F510927E0310927D03B093C9
:102350007C03A0937B03BCCFD383C2834081518194
:10236000840F951FC817D90761F44E5F5F4F8881AE
:102370009981480F591F518340838A819B819383A0
:1023800082832115310509F0B0CFF0937E03E093ED
:102390007D039ECFFD01DC01C0CF13821282D7CF17
:1023A000BB274A3031F4992322F4BDE29095819500
:1023B0009F4F0C94DC11BB27FB015527AA27880FE0
:1023C000991FAA1FA41710F0A41B83955051B9F7A9
:1023D000A05DAA3308F0A95DA193009779F7B11128
:1023E000B1931192CB010C94F511DC01FC01672F24
:1023F00071917723E1F7329704C07C916D937083DC
:102400006291AE17BF07C8F308952F923F924F9283
:102410005F926F927F928F929F92AF92BF92CF9274
:10242000DF92EF92FF920F931F93CF93DF93CDB77D
:10243000DEB7CA1BDB0B0FB6F894DEBF0FBECDBFF5
:1024400009942A88398848885F846E847D848C84C6
:102450009B84AA84B984C884DF80EE80FD800C81CF
:102460001B81AA81B981CE0FD11D0FB6F894DEBFB2
:102470000FBECDBFED010895EE0FFF1F0590F49143
:10248000E02D0994B0E0A0E0E8E4F2E10C9407123A
:102490008C01009751F4CB010E94AB108C01C80154
:1024A000CDB7DEB7E0E10C942312FC01E60FF71F75
:1024B0009C0122503109E217F30708F49DC0D901AD
:1024C000CD91DC911197C617D70798F0C530D1058B
:1024D00030F3CE0104978617970708F3C61BD70B76
:1024E0002297C193D1936D937C93CF010E944711A2
:1024F000D6CF5B01AC1ABD0A4C018C0E9D1EA0917B
:102500007D03B0917E03512C412CF12CE12C1097CE
:1025100031F580917B0390917C038815990509F032
:102520005CC04616570608F058C080910301909190
:102530000401009741F48DB79EB740910701509177
:102540000801841B950BE817F90708F055C0F093B4
:102550007C03E0937B03F90171836083A0CF8D91AD
:102560009C91119712966C90129713967C901397EA
:10257000A815B90559F56C0142E0C40ED11CCA1466
:10258000DB0420F1AC014A195B09DA0112961597B8
:1025900080F06282738251834083D9016D937C9372
:1025A000E114F10471F0D7011396FC93EE931297A6
:1025B00076CF22968C0F9D1FF90191838083F301C2
:1025C000EFCFF0937E03E0937D0369CF4816590661
:1025D00008F42C017D01D3019ACFCB010E94AB10EE
:1025E0007C01009749F0AE01B8010E94FF12C801BA
:1025F0000E944711870153CF10E000E050CFFB014C
:10260000DC0102C001900D9241505040D8F708956E
:10261000DC0101C06D9341505040E0F70895FB018B
:10262000DC0101900D920020E1F70895F894FFCFAE
:1026300001000300007F03800000000000E0013D76
:10264000016A012D029B0179018D010D0A004F4E97
:102650002F4F4646204C454400426C696E6B696EB4
:1026600067204C454400494E432F44454320427562
:1026700074746F6E730049646C65205461736B00F1
:102680004C6564203120686173207475726E6564D6
:10269000206F6E2E004C65642032206861732073B9
:1026A000746F707065642E004C6564203120686121
:1026B00073207475726E6564206F6666004C656485
:1026C00020322068617320737461727465642062C3
:1026D0006C696E6B696E67005441534B32207265B2
:1026E00063757272656E63652068617320626565EB
:1026F0006E2073657420746F2000206D732E00545B
:10270000686520726563757272656E6365206861C5
:102710007320726561636865642069742773206D36
:102720006178696D756D2076616C75652E005468F1
:102730006520726563757272656E6365206861738A
:1027400020726561636865642069742773206D6910
:102750006E696D616C2076616C75652E0049444C24
:0A2760004500546D722053766300AB
:00000001FF
